:100000000C942A000C9447000C9447000C94470071
:100010000C9447000C9447000C9447000C94470044
:100020000C9447000C9447000C9447000C94470034
:100030000C9447000C9447000C9447000C94470024
:100040000C9447000C9447000C9447000C94470014
:100050000C94470011241FBECFE5D4E0DEBFCDBF16
:1000600010E0A0E6B0E0E2E2F1E002C005900D92FF
:10007000A036B107D9F710E0A0E6B0E001C01D92AC
:10008000A036B107E1F70E9449000C948F000C9450
:100090000000CF93DF938FEF87BB40E850E0C9E1CA
:1000A000D0E0842F880F88BB20E137E2FE01319732
:1000B000F1F721503040D1F7CA0162E070E00E94B0
:1000C0006800AB016115710561F740E850E0E9CFC8
:1000D00097FB092E07260AD077FD04D00CD006D056
:1000E00000201AF4709561957F4F0895F6F790956A
:1000F00081959F4F0895AA1BBB1B51E107C0AA1F02
:10010000BB1FA617B70710F0A61BB70B881F991FB8
:100110005A95A9F780959095BC01CD010895F89462
:02012000FFCF0F
:00000001FF
