:100000000C942A000C9447000C9447000C94470071
:100010000C9447000C9447000C9447000C94470044
:100020000C9447000C9447000C9447000C94470034
:100030000C9447000C9447000C9447000C94470024
:100040000C9447000C9447000C9447000C94470014
:100050000C94470011241FBECFE5D4E0DEBFCDBF16
:1000600010E0A0E6B0E0EEEEF3E002C005900D92E5
:10007000AC36B107D9F710E0ACE6B0E001C01D9294
:10008000AC36B107E1F70E9486010C94F5010C949F
:10009000000082BB90989198929A8AEF90E0019725
:1000A000F1F79298089582BB909A9198929A8AEF6C
:1000B00090E00197F1F792980895282F207F22BBB6
:1000C000909A9198929A2AEF30E0F9013197F1F7DE
:1000D0009298F9013197F1F790E044E0880F991F69
:1000E0004A95E1F782BB909A9198929AC90101973B
:1000F000F1F792980895282F207F22BB909891982D
:10010000929A2AEF30E0F9013197F1F79298F901CC
:100110003197F1F790E054E0880F991F5A95E1F775
:1001200082BB90989198929AC9010197F1F79298A1
:10013000089581E00E947B0008951F93182F80E4AA
:100140000E947B0080E10E945D0080E10E945D00D2
:1001500080E10E945D0080E10E945D0080E10E94DC
:100160005D0080E10E945D0080E10E945D00812FC2
:100170000E947B0080E00E945D0080E69AEE29E10B
:1001800030E0F9013197F1F70197D9F780E40E9447
:100190007B0088E10E945D0088E10E945D0088E1AB
:1001A0000E945D0088E10E945D0088E10E945D0080
:1001B00088E10E945D0088E10E945D00812F0E941D
:1001C0007B0080E00E945D0080E69AEE29E130E04D
:1001D000F9013197F1F70197D9F780E40E947B008C
:1001E0008CE10E945D008CE10E945D008CE10E9428
:1001F0005D008CE10E945D008CE10E945D008CE15D
:100200000E945D008CE10E945D00812F0E947B00B6
:1002100080E00E945D0080E69AEE29E130E0F9017D
:100220003197F1F70197D9F780E40E947B008EE1C6
:100230000E945D008EE10E945D008EE10E945D00E3
:100240008EE10E945D008EE10E945D008EE10E94C1
:100250005D008EE10E945D00812F0E947B0080E0A6
:100260000E945D0080E69AEE29E130E0F9013197C5
:10027000F1F70197D9F780E40E947B008FE10E949B
:100280005D008FE10E945D008FE10E945D008FE1C3
:100290000E945D008FE10E945D008FE10E945D0081
:1002A0008FE10E945D00812F0E947B0080E00E9410
:1002B0005D001F9108950F931F9382E00E947B00C1
:1002C00088E20E947B000AEF10E0C8010197F1F775
:1002D000C8010197F1F78CE00E947B00C8010197EB
:1002E000F1F786E00E947B0080E80E947B001F916E
:1002F0000F910895CF93DF93EC0102C00E945D003F
:1003000089918823D9F7DF91CF9108958FEF81BB31
:100310000E945B0180E80E947B0080E690E00E94E2
:100320007A0180EC0E949D0081EC0E949D0082EC8D
:100330000E949D0083EC0E949D0084EC0E949D0021
:1003400085EC0E949D0086EC0E949D0087EC0E9437
:100350009D0088EC0E949D0089EC0E949D008AEC23
:100360000E949D008BEC0E949D008CEC0E949D00E1
:100370008DEC0E949D008EEC0E949D008FEC0E94EF
:100380009D0080E090E00895CF93DF93EC0184E03E
:100390000E947B000EC0CE016AE070E00E94E10185
:1003A000805D0E945D00CE016AE070E00E94E10184
:1003B000EB01209781F786E00E947B00DF91CF91CF
:1003C0000895AA1BBB1B51E107C0AA1FBB1FA6179C
:1003D000B70710F0A61BB70B881F991F5A95A9F7EE
:0E03E00080959095BC01CD010895F894FFCF53
:0C03EE004C4F4144494E472E2E2E2E004D
:00000001FF
