:100000000C942A000C9447000C9447000C94470071
:100010000C9447000C9447000C9447000C94470044
:100020000C9447000C9447000C9447000C94470034
:100030000C9447000C9447000C9447000C94470024
:100040000C9447000C9447000C9447000C94470014
:100050000C94470011241FBECFE5D4E0DEBFCDBF16
:1000600010E0A0E6B0E0EAE6F3E002C005900D92F1
:10007000AC36B107D9F710E0ACE6B0E001C01D9294
:10008000AC36B107E1F70E94C8000C94B3010C94A0
:10009000000082BB90989198929A8AEF90E0019725
:1000A000F1F79298089582BB909A9198929A8AEF6C
:1000B00090E00197F1F792980895282F207F22BBB6
:1000C000909A9198929A2AEF30E0F9013197F1F7DE
:1000D0009298F9013197F1F790E044E0880F991F69
:1000E0004A95E1F782BB909A9198929AC90101973B
:1000F000F1F792980895282F207F22BB909891982D
:10010000929A2AEF30E0F9013197F1F79298F901CC
:100110003197F1F790E054E0880F991F5A95E1F775
:1001200082BB90989198929AC9010197F1F79298A1
:10013000089581E00E947B0008950F931F9382E051
:100140000E947B0088E20E947B000AEF10E0C80159
:100150000197F1F7C8010197F1F78CE00E947B004D
:10016000C8010197F1F786E00E947B0080E80E94B9
:100170007B001F910F910895CF93DF93EC0102C094
:100180000E945D0089918823D9F7DF91CF9108956E
:10019000CF93DF938FEF81BB0E949D0081E00E948F
:1001A0007B00C9E1D0E080E690E00E94BC0080ECDA
:1001B0000E947B0080E40E947B008FE10E945D0032
:1001C0008FE10E945D008FE10E945D008FE10E943F
:1001D0005D008FE10E945D008FE10E945D008FE174
:1001E0000E945D008FEF9FEFFE013197F1F70197BD
:1001F000D9F781EC0E947B0080E40E947B008FE1B4
:100200000E945D008FE10E945D008FE10E945D0011
:100210008FE10E945D008FE10E945D008FE10E94EE
:100220005D008FE10E945D008FEF9FEFFE0131972F
:10023000F1F70197D9F782EC0E947B0080E40E94DD
:100240007B008FE10E945D008FE10E945D008FE1E5
:100250000E945D008FE10E945D008FE10E945D00C1
:100260008FE10E945D008FE10E945D008FEF9FEFA4
:10027000FE013197F1F70197D9F783EC0E947B00DB
:1002800080E40E947B008FE10E945D008FE10E946C
:100290005D008FE10E945D008FE10E945D008FE1B3
:1002A0000E945D008FE10E945D008FE10E945D0071
:1002B0008FEF9FEFFE013197F1F70197D9F784ECAB
:1002C0000E947B0080E40E947B008FE10E945D0021
:1002D0008FE10E945D008FE10E945D008FE10E942E
:1002E0005D008FE10E945D008FE10E945D008FE163
:1002F0000E945D008FEF9FEFFE013197F1F70197AC
:10030000D9F751CFCF93DF93EC0184E00E947B00BB
:100310000EC0CE016AE070E00E949F01805D0E94E5
:100320005D00CE016AE070E00E949F01EB01209722
:1003300081F786E00E947B00DF91CF910895AA1B90
:10034000BB1B51E107C0AA1FBB1FA617B70710F0C0
:10035000A61BB70B881F991F5A95A9F780959095F2
:0A036000BC01CD010895F894FFCF11
:0C036A004C4F4144494E472E2E2E0000FF
:00000001FF
