:100000000C942A000C9447000C9447000C94470071
:100010000C9447000C9447000C9447000C94470044
:100020000C9447000C9447000C9447000C94470034
:100030000C9447000C9447000C9447000C94470024
:100040000C9447000C9447000C9447000C94470014
:100050000C94470011241FBECFE5D4E0DEBFCDBF16
:1000600010E0A0E6B0E0EAEFF2E002C005900D92E9
:10007000A036B107D9F710E0A0E6B0E001C01D92AC
:10008000A036B107E1F70E9420010C947B010C948B
:10009000000082BB929A8AEF90E00197F1F782B359
:1000A00082BB089582BB82B3856082BB8AEF90E0F9
:1000B0000197F1F7909A0895282F207F22BB22B351
:1000C000256022BB2AEF30E0F9013197F1F7909AD1
:1000D000F9013197F1F790E044E0880F991F4A95B4
:1000E000E1F782BB82B3856082BBC9010197F1F75A
:1000F000909A0895282F207F22BB929A4AEF50E0D1
:10010000FA013197F1F722B322BBFA013197F1F7E7
:1001100090E064E0880F991F6A95E1F782BB929A9C
:10012000CA010197F1F782B382BB089512BA929A7D
:100130008AEF90E0FC013197F1F722B322BBFC017A
:100140003197F1F730E232BB929AFC013197F1F727
:1001500022B322BB32BB929AFC013197F1F722B352
:1001600022BBFC013197F1F720E822BB929AFC01F7
:100170003197F1F722B322BBFC013197F1F712BAA4
:10018000929AFC013197F1F722B322BBFC0131971F
:10019000F1F720EE22BB929AFC013197F1F722B3DE
:1001A00022BBFC013197F1F712BA929AFC01319708
:1001B000F1F722B322BBFC013197F1F720E122BB1A
:1001C000929AFC013197F1F722B322BB0197F1F724
:1001D0000895CF93DF93EC0102C00E945C008991E7
:1001E0008823D9F7DF91CF910895CF93DF93EC0166
:1001F00012BA929A2AEF30E0C9010197F1F782B35F
:1002000082BBC9010197F1F780E482BB929AC901D0
:100210000197F1F782B382BB0EC0CE016AE070E0B5
:100220000E946701805D0E945C00CE016AE070E080
:100230000E946701EB01209781F7DF91CF9108952C
:100240000F931F93CF93DF938FEF81BB0E94960094
:1002500000E4CAEFD0E010E802BB929ACE01019709
:10026000F1F782B382BBCE010197F1F712BA929AED
:10027000CE010197F1F782B382BB84E00E945C005B
:100280008EE00E945C008EE00E945C008EE00E9486
:100290005C008FE10E945C0080E00E945C0084E0D2
:1002A0000E945C0012BB929ACE010197F1F782B3D3
:1002B00082BBCE010197F1F712BA929ACE01019753
:1002C000F1F782B382BB80E00E945C00C5CFAA1B1D
:1002D000BB1B51E107C0AA1FBB1FA617B70710F031
:1002E000A61BB70B881F991F5A95A9F78095909563
:0A02F000BC01CD010895F894FFCF82
:00000001FF
