:100000000C942A000C9447000C9447000C94470071
:100010000C9447000C9447000C9447000C94470044
:100020000C9447000C9447000C9447000C94470034
:100030000C9447000C9447000C9447000C94470024
:100040000C9447000C9447000C9447000C94470014
:100050000C94470011241FBECFE5D4E0DEBFCDBF16
:1000600010E0A0E6B0E0E4EAF2E002C005900D92F4
:10007000A438B107D9F710E0A4E8B0E001C01D92A0
:10008000A438B107E1F70E94E5000C9450010C94EC
:10009000000082BB90989198929A8AEF90E0019725
:1000A000F1F79298089582BB909A9198929A8AEF6C
:1000B00090E00197F1F792980895282F207F22BBB6
:1000C000909A9198929A2AEF30E0F9013197F1F7DE
:1000D0009298F9013197F1F790E044E0880F991F69
:1000E0004A95E1F782BB909A9198929AC90101973B
:1000F000F1F792980895282F207F22BB909891982D
:10010000929A2AEF30E0F9013197F1F79298F901CC
:100110003197F1F790E054E0880F991F5A95E1F775
:1001200082BB90989198929AC9010197F1F79298A1
:10013000089581E00E947B0008950F931F9382E051
:100140000E947B0088E20E947B000AEF10E0C80159
:100150000197F1F7C8010197F1F78CE00E947B004D
:10016000C8010197F1F786E00E947B0080E80E94B9
:100170007B001F910F910895CF93DF93EC0102C094
:100180000E945D0089918823D9F7DF91CF9108956E
:10019000CF93DF93EC0184E00E947B000EC0CE0180
:1001A0006AE070E00E943C01805D0E945D00CE012B
:1001B0006AE070E00E943C01EB01209781F786E045
:1001C0000E947B00DF91CF910895DF92EF92FF9222
:1001D0000F931F93CF93DF938FEF81BB0E949D00FE
:1001E00080E487B981E886B970E4D72E64ECE62E06
:1001F00069E0F62E09E110E080E80E947B0080E6CD
:1002000090E00E94BC00D7B8C7010197F1F7369A79
:10021000349BFECFC4B1D5B18CE80E947B00CE01E7
:100220000E94C80081EC0E947B0088E10E947B0054
:1002300080E197E2F8013197F1F70197D9F7C357B9
:10024000D14018F489E690E002C086E790E00E9471
:10025000BC00D2CF80E487B981E886B90895806474
:1002600087B984EC99E00197F1F7369A349BFECF79
:1002700024B135B1C9010895AA1BBB1B51E107C0C8
:10028000AA1FBB1FA617B70710F0A61BB70B881F26
:10029000991F5A95A9F780959095BC01CD010895B5
:0402A000F894FFCF00
:1002A40053656E736F723A3A00426C61636B20520D
:1002B4006567696F6E0057686974652020526567C9
:0402C400696F6E00F0
:00000001FF
