:100000000C942A000C9447000C9447000C94470071
:100010000C9447000C9447000C9447000C94470044
:100020000C9447000C9447000C9447000C94470034
:100030000C9447000C9447000C9447000C94470024
:100040000C9447000C9447000C9447000C94470014
:100050000C94470011241FBECFE5D4E0DEBFCDBF16
:1000600010E0A0E6B0E0ECE4F3E002C005900D92F1
:10007000A036B107D9F710E0A0E6B0E001C01D92AC
:10008000A036B107E1F70E9449010C94A4010C9439
:10009000000085BBAA9A8AEF90E00197F1F785B33B
:1000A00085BB089585BB85B3856085BB8AEF90E0ED
:1000B0000197F1F7A89A0895282F207F25BB25B333
:1000C000256025BB2AEF30E0F9013197F1F7A89AB6
:1000D000F9013197F1F790E044E0880F991F4A95B4
:1000E000E1F785BB85B3856085BBC9010197F1F751
:1000F000A89A0895282F207F25BBAA9A4AEF50E09E
:10010000FA013197F1F725B325BBFA013197F1F7E1
:1001100090E064E0880F991F6A95E1F785BBAA9A81
:10012000CA010197F1F785B385BB089515BAAA9A5C
:100130008AEF90E0FC013197F1F725B325BBFC0174
:100140003197F1F730E235BBAA9AFC013197F1F70C
:1001500025B325BB35BBAA9AFC013197F1F725B32E
:1001600025BBFC013197F1F720E825BBAA9AFC01D9
:100170003197F1F725B325BBFC013197F1F715BA9B
:10018000AA9AFC013197F1F725B325BBFC01319701
:10019000F1F720EE25BBAA9AFC013197F1F725B3C0
:1001A00025BBFC013197F1F715BAAA9AFC013197EA
:1001B000F1F725B325BBFC013197F1F720E125BB11
:1001C000AA9AFC013197F1F725B325BBFC013197C1
:1001D000F1F715BAAA9AFC013197F1F725B325BBBF
:1001E000FC013197F1F720EC25BBAA9AFC0131976D
:1001F000F1F725B325BB0197F1F70895CF93DF936E
:10020000EC0102C00E945C0089918823D9F7DF913C
:10021000CF910895CF93DF93EC0115BAAA9A2AEFF4
:1002200030E0C9010197F1F785B385BBC90101979A
:10023000F1F780E485BBAA9AC9010197F1F785B36C
:1002400085BB0EC0CE016AE070E00E949001805D27
:100250000E945C00CE016AE070E00E949001EB0118
:10026000209781F715BAAA9A2AEF30E0C9010197C1
:10027000F1F785B385BBC9010197F1F780E685BB2E
:10028000AA9AC9010197F1F785B385BBDF91CF9198
:1002900008950F931F93CF93DF938FEF84BB0E943A
:1002A000960000E4CAEFD0E010E805BBAA9ACE01A0
:1002B0000197F1F785B385BBCE010197F1F715BA28
:1002C000AA9ACE010197F1F785B385BB84E00E941D
:1002D0005C008EE10E945C008EE10E945C008EE179
:1002E0000E945C008FE10E945C0080E00E945C0044
:1002F00084E00E945C0015BBAA9ACE010197F1F739
:1003000085B385BBCE010197F1F715BAAA9ACE0144
:100310000197F1F785B385BB80E00E945C00C5CFF3
:10032000AA1BBB1B51E107C0AA1FBB1FA617B7071B
:1003300010F0A61BB70B881F991F5A95A9F7809537
:0C0340009095BC01CD010895F894FFCF0A
:00000001FF
