:100000000C942A000C9447000C9447000C94470071
:100010000C9447000C9447000C9447000C94470044
:100020000C9447000C9447000C9447000C94470034
:100030000C9447000C9447000C9447000C94470024
:100040000C9447000C9447000C9447000C94470014
:100050000C94470011241FBECFE5D4E0DEBFCDBF16
:1000600010E0A0E6B0E0E2EAF2E002C005900D92F6
:10007000A637B107D9F710E0A6E7B0E001C01D929E
:10008000A637B107E1F70E94E5000C944F010C94EC
:10009000000082BB90989198929A8AEF90E0019725
:1000A000F1F79298089582BB909A9198929A8AEF6C
:1000B00090E00197F1F792980895282F207F22BBB6
:1000C000909A9198929A2AEF30E0F9013197F1F7DE
:1000D0009298F9013197F1F790E044E0880F991F69
:1000E0004A95E1F782BB909A9198929AC90101973B
:1000F000F1F792980895282F207F22BB909891982D
:10010000929A2AEF30E0F9013197F1F79298F901CC
:100110003197F1F790E054E0880F991F5A95E1F775
:1001200082BB90989198929AC9010197F1F79298A1
:10013000089581E00E947B0008950F931F9382E051
:100140000E947B0088E20E947B000AEF10E0C80159
:100150000197F1F7C8010197F1F78CE00E947B004D
:10016000C8010197F1F786E00E947B0080E80E94B9
:100170007B001F910F910895CF93DF93EC0102C094
:100180000E945D0089918823D9F7DF91CF9108956E
:10019000CF93DF93EC0184E00E947B000EC0CE0180
:1001A0006AE070E00E943B01805D0E945D00CE012C
:1001B0006AE070E00E943B01EB01209781F786E046
:1001C0000E947B00DF91CF910895EF92FF920F93F1
:1001D0001F93CF93DF938FEF81BB87BB0E949D005E
:1001E00080E197E229E130E0F9013197F1F70197D9
:1001F000D9F780E487B981E886B970E4E72EC4ECCA
:10020000D9E0FF24FA9480E80E947B0080E690E029
:100210000E94BC00E7B8CE010197F1F7369A349BF3
:10022000FECF04B115B1169507958EE80E947B00AC
:10023000C8010E94C8000734110510F0F8BA01C0C7
:1002400018BA85EC0E947B008CE690E00E94BC000E
:10025000DACF80E487B981E886B90895806487B9E8
:1002600084EC99E00197F1F7369A349BFECF24B1E4
:1002700035B1C9010895AA1BBB1B51E107C0AA1FD4
:10028000BB1FA617B70710F0A61BB70B881F991F37
:100290005A95A9F780959095BC01CD010895F894E1
:0202A000FFCF8E
:1002A20054656D70657261747572650047726F7521
:0602B200702D3334000042
:00000001FF
