:100000000C942A000C9447000C9447000C94470071
:100010000C9447000C9447000C9447000C94470044
:100020000C9447000C9447000C9447000C94470034
:100030000C9447000C9447000C9447000C94470024
:100040000C9447000C9447000C9447000C94470014
:100050000C94470011241FBECFE5D4E0DEBFCDBF16
:1000600010E0A0E6B0E0EEE0F3E002C005900D92F3
:10007000A437B107D9F710E0A4E7B0E001C01D92A2
:10008000A437B107E1F70E94E8000C9485010C94B5
:10009000000082BB90989198929A8AEF90E0019725
:1000A000F1F79298089582BB909A9198929A8AEF6C
:1000B00090E00197F1F792980895282F207F22BBB6
:1000C000909A9198929A2AEF30E0F9013197F1F7DE
:1000D0009298F9013197F1F790E044E0880F991F69
:1000E0004A95E1F782BB909A9198929AC90101973B
:1000F000F1F792980895282F207F22BB909891982D
:10010000929A2AEF30E0F9013197F1F79298F901CC
:100110003197F1F790E054E0880F991F5A95E1F775
:1001200082BB90989198929AC9010197F1F79298A1
:10013000089581E00E947B0008950F931F9382E051
:100140000E947B0088E20E947B000AEF10E0C80159
:100150000197F1F781E00E947B00C8010197F1F758
:100160008CE00E947B00C8010197F1F786E00E94B5
:100170007B0080E80E947B001F910F910895CF9330
:10018000DF93EC0102C00E945D0089918823D9F7BA
:10019000DF91CF910895CF93DF93EC0184E00E942B
:1001A0007B000EC0CE016AE070E00E947101805DAC
:1001B0000E945D00CE016AE070E00E947101EB01D7
:1001C000209781F786E00E947B00DF91CF91089510
:1001D000CF92DF92EF92FF920F931F93CF93DF9313
:1001E0008FEF81BB0E949D0080E197E229E130E022
:1001F000F9013197F1F70197D9F700E010E069E1D3
:10020000C62ED12C6BC080E80E947B0080E690E077
:100210000E94BF0083EC0E947B0080E30E945D008F
:1002200086EC0E947B0081E790E00E94BF0087EC93
:100230000E947B0080E30E945D0089EC0E947B00AD
:1002400081E790E00E94BF008BEC0E947B0080E37E
:100250000E945D0080E80E947B0080E690E00E94A2
:10026000BF0083EC0E947B00C8010E94CB0086EC9B
:100270000E947B0081E790E00E94BF0087EC0E9413
:100280007B00C7010E94CB0089EC0E947B0081E7C4
:1002900090E00E94BF008BEC0E947B00CE010E9488
:1002A000CB0080E49CE9F6013197F1F70197D9F78B
:1002B0002196CC33D10509F0A6CF0894E11CF11C9E
:1002C0008CE3E816F10419F0C0E0D0E09CCF0F5F9A
:1002D0001F4F0C30110514F000E010E0EE24FF2455
:1002E000F3CFAA1BBB1B51E107C0AA1FBB1FA61758
:1002F000B70710F0A61BB70B881F991F5A95A9F7CF
:0E03000080959095BC01CD010895F894FFCF33
:10030E00544845204449474954414C434C4F434B74
:04031E00003A0000A1
:00000001FF
