:100000000C942A000C9447000C9447000C94470071
:100010000C9447000C9447000C9447000C94470044
:100020000C9447000C9447000C9447000C94470034
:100030000C9447000C9447000C9447000C94470024
:100040000C9447000C9447000C9447000C94470014
:100050000C94470011241FBECFE5D4E0DEBFCDBF16
:1000600010E0A0E6B0E0E6E5F2E002C005900D92F7
:10007000A036B107D9F710E0A0E6B0E001C01D92AC
:10008000A036B107E1F70E94BC000C9429010C9442
:10009000000082BB90989198929A8AEF90E0019725
:1000A000F1F79298089582BB909A9198929A8AEF6C
:1000B00090E00197F1F792980895282F207F22BBB6
:1000C000909A9198929A2AEF30E0F9013197F1F7DE
:1000D0009298F9013197F1F790E044E0880F991F69
:1000E0004A95E1F782BB909A9198929AC90101973B
:1000F000F1F792980895282F207F22BB909891982D
:10010000929A2AEF30E0F9013197F1F79298F901CC
:100110003197F1F790E054E0880F991F5A95E1F775
:1001200082BB90989198929AC9010197F1F79298A1
:10013000089581E00E947B0008950F931F9382E051
:100140000E947B0088E20E947B000AEF10E0C80159
:100150000197F1F7C8010197F1F78CE00E947B004D
:10016000C8010197F1F786E00E947B0080E80E94B9
:100170007B001F910F910895EF92FF921F93CF93F1
:10018000DF938FEF81BB0E949D0080E80E947B007F
:1001900010E869E1E62EF12CC8EAD1E6812F0E9431
:1001A0007B00812F8F530E945D0080E593ECF70167
:1001B0003197F1F70197D9F70E949900CE01019785
:1001C000F1F71F5F103951F780E090E0DF91CF9198
:1001D0001F91FF90EF900895CF93DF93EC0102C041
:1001E0000E945D0089918823D9F7DF91CF9108950E
:1001F000CF93DF93EC0184E00E947B000EC0CE0120
:100200006AE070E00E941501805D0E945D00CE01F1
:100210006AE070E00E941501EB01209781F786E00B
:100220000E947B00DF91CF910895AA1BBB1B51E177
:1002300007C0AA1FBB1FA617B70710F0A61BB70B56
:10024000881F991F5A95A9F780959095BC01CD01FB
:060250000895F894FFCFB1
:00000001FF
