:100000000C942A000C9447000C9447000C94470071
:100010000C9447000C9447000C9447000C94470044
:100020000C9447000C9447000C9447000C94470034
:100030000C9447000C9447000C9447000C94470024
:100040000C9447000C9447000C9447000C94470014
:100050000C94470011241FBECFE5D4E0DEBFCDBF16
:1000600010E0A0E6B0E0ECEEF5E002C005900D92E5
:10007000A036B107D9F710E0A0E6B0E001C01D92AC
:10008000A036B107E1F70E94BC000C94F4020C9476
:10009000000082BB90989198929A8AEF90E0019725
:1000A000F1F79298089582BB909A9198929A8AEF6C
:1000B00090E00197F1F792980895282F207F22BBB6
:1000C000909A9198929A2AEF30E0F9013197F1F7DE
:1000D0009298F9013197F1F790E044E0880F991F69
:1000E0004A95E1F782BB909A9198929AC90101973B
:1000F000F1F792980895282F207F22BB909891982D
:10010000929A2AEF30E0F9013197F1F79298F901CC
:100110003197F1F790E054E0880F991F5A95E1F775
:1001200082BB90989198929AC9010197F1F79298A1
:10013000089581E00E947B0008950F931F9382E051
:100140000E947B0088E20E947B000AEF10E0C80159
:100150000197F1F7C8010197F1F78CE00E947B004D
:10016000C8010197F1F786E00E947B0080E80E94B9
:100170007B001F910F910895CF93DF938FEF81BB89
:100180000E949D00C9E1D0E080E50E947B008FE1E4
:100190000E945D0088E293E2FE013197F1F701973A
:1001A000D9F78FE10E945D0088E293E2FE0131976A
:1001B000F1F70197D9F78FE10E945D0088E293E2A1
:1001C000FE013197F1F70197D9F78FE10E945D00A9
:1001D00088E293E2FE013197F1F70197D9F78FE1B9
:1001E0000E945D0088E293E2FE013197F1F70197EA
:1001F000D9F78FE10E945D0088E293E2FE0131971A
:10020000F1F70197D9F78FE10E945D0088E293E250
:10021000FE013197F1F70197D9F780E80E947B0042
:1002200080E00E945D0088E293E2FE013197F1F7E1
:100230000197D9F788E40E947B008FE10E945D005E
:1002400088E293E2FE013197F1F70197D9F78FE148
:100250000E945D0088E293E2FE013197F1F7019779
:10026000D9F78FE10E945D0088E293E2FE013197A9
:10027000F1F70197D9F78FE10E945D0088E293E2E0
:10028000FE013197F1F70197D9F78FE10E945D00E8
:100290008FEF9FEFFE013197F1F70197D9F78FE1CB
:1002A0000E945D008FEF9FEFFE013197F1F70197FC
:1002B000D9F78FE10E945D008FEF9FEFFE0131972C
:1002C000F1F70197D9F781E80E947B0080E00E9456
:1002D0005D008FEF9FEFFE013197F1F70197D9F79E
:1002E00088E40E947B008FE10E945D008FE10E9404
:1002F0005D008FE10E945D008FE10E945D008FE153
:100300000E945D008FE10E945D008FE10E945D0010
:1003100082E80E947B0080E00E945D008FEF9FEFEB
:10032000FE013197F1F70197D9F788E40E947B002D
:100330008FE10E945D008FE10E945D008FE10E94CD
:100340005D008FE10E945D008FE10E945D008FE102
:100350000E945D008FE10E945D0083E80E947B00A7
:1003600080E00E945D008FEF9FEFFE013197F1F773
:100370000197D9F788E40E947B008FE10E945D001D
:100380008FE10E945D008FE10E945D008FE10E947D
:100390005D008FE10E945D008FE10E945D008FE1B2
:1003A0000E945D0084E80E947B0080E00E945D0066
:1003B0008FEF9FEFFE013197F1F70197D9F788E4AE
:1003C0000E947B008FE10E945D008FE10E945D0032
:1003D0008FE10E945D008FE10E945D008FE10E942D
:1003E0005D008FE10E945D008FE10E945D0085E865
:1003F0000E947B0080E00E945D008FEF9FEFFE0176
:100400003197F1F70197D9F788E40E947B008FE1DB
:100410000E945D008FE10E945D008FE10E945D00FF
:100420008FE10E945D008FE10E945D008FE10E94DC
:100430005D008FE10E945D0086E80E947B0080E005
:100440000E945D008FEF9FEFFE013197F1F701975A
:10045000D9F788E40E947B008FE10E945D008FE164
:100460000E945D008FE10E945D008FE10E945D00AF
:100470008FE10E945D008FE10E945D008FE10E948C
:100480005D0087E80E947B0080E00E945D008FEFA6
:100490009FEFFE013197F1F70197D9F788E40E94A9
:1004A0007B008FE10E945D008FE10E945D008FE183
:1004B0000E945D008FE10E945D008FE10E945D005F
:1004C0008FE10E945D008FE10E945D0088E80E943C
:1004D0007B0080E00E945D008FEF9FEFFE0131976F
:1004E000F1F70197D9F788E40E947B008FE10E9421
:1004F0005D008FE10E945D008FE10E945D008FE151
:100500000E945D008FE10E945D008FE10E945D000E
:100510008FE10E945D0089E80E947B0080E00E94DC
:100520005D008FEF9FEFFE013197F1F70197D9F74B
:1005300088E40E947B008FE10E945D008FE10E94B1
:100540005D008FE10E945D008FE10E945D008FE100
:100550000E945D008FE10E945D008FE10E945D00BE
:100560008AE80E947B0080E00E945D000DCECF9360
:10057000DF93EC0102C00E945D0089918823D9F7C6
:10058000DF91CF910895CF93DF93EC0184E00E9437
:100590007B000EC0CE016AE070E00E94E002805D48
:1005A0000E945D00CE016AE070E00E94E002EB0173
:1005B000209781F786E00E947B00DF91CF9108951C
:1005C000AA1BBB1B51E107C0AA1FBB1FA617B70779
:1005D00010F0A61BB70B881F991F5A95A9F7809595
:0C05E0009095BC01CD010895F894FFCF68
:00000001FF
