:100000000C942A000C9447000C9447000C94470071
:100010000C9447000C9447000C9447000C94470044
:100020000C9447000C9447000C9447000C94470034
:100030000C9447000C9447000C9447000C94470024
:100040000C9447000C9447000C9447000C94470014
:100050000C94470011241FBECFE5D4E0DEBFCDBF16
:1000600011E0A0E6B0E0E0E4F3E002C005900D92FC
:10007000AA35B107D9F711E0AAE5B1E001C01D9298
:10008000AA35B107E1F70E94E5000C949E010C949B
:10009000000082BB90989198929A8AEF90E0019725
:1000A000F1F79298089582BB909A9198929A8AEF6C
:1000B00090E00197F1F792980895282F207F22BBB6
:1000C000909A9198929A2AEF30E0F9013197F1F7DE
:1000D0009298F9013197F1F790E044E0880F991F69
:1000E0004A95E1F782BB909A9198929AC90101973B
:1000F000F1F792980895282F207F22BB909891982D
:10010000929A2AEF30E0F9013197F1F79298F901CC
:100110003197F1F790E054E0880F991F5A95E1F775
:1001200082BB90989198929AC9010197F1F79298A1
:10013000089581E00E947B0008950F931F9382E051
:100140000E947B0088E20E947B000AEF10E0C80159
:100150000197F1F7C8010197F1F78CE00E947B004D
:10016000C8010197F1F786E00E947B0080E80E94B9
:100170007B001F910F910895CF93DF93EC0102C094
:100180000E945D0089918823D9F7DF91CF9108956E
:10019000CF93DF93EC0184E00E947B000EC0CE0180
:1001A0006AE070E00E948A01805D0E945D00CE01DD
:1001B0006AE070E00E948A01EB01209781F786E0F7
:1001C0000E947B00DF91CF910895DF92EF92FF9222
:1001D0000F931F93CF93DF938FEF81BB0E949D00FE
:1001E00080E487B981E886B970E4D72E64ECE62E06
:1001F00069E0F62E09E110E080E80E947B0080E6CD
:1002000090E00E94BC00D7B8C7010197F1F7369A79
:10021000349BFECFC4B1D5B18CE80E947B00CE01E7
:100220000E94C80081EC0E947B0088E10E947B0054
:1002300080E49CE9F8013197F1F70197D9F781E063
:10024000CE39D80720F089E690E00E94BC00CE01AC
:100250008D599140029720F481E890E00E94BC0003
:10026000CE01805991400D9720F489E990E00E94D9
:10027000BC00CE0188589140089720F481EB90E0B3
:100280000E94BC00CE0181589140079720F489EC70
:1002900090E00E94BC00CE0188569140499720F41E
:1002A00081EE90E00E94BC00CE01895591400F97ED
:1002B00020F489EF90E00E94BC00CE01805591406F
:1002C000099720F481E191E00E94BC00CE0188549E
:1002D0009140089720F489E291E00E94BC00C85444
:1002E000D14008F089CF81E491E00E94BC0084CF26
:1002F00080E487B981E886B90895806487B984EC81
:1003000099E00197F1F7369A349BFECF24B135B1CD
:10031000C9010895AA1BBB1B51E107C0AA1FBB1F3F
:10032000A617B70710F0A61BB70B881F991F5A9581
:10033000A9F780959095BC01CD010895F894FFCF61
:1003400053656E736F723A3A0044697374616E63F9
:10035000653A3A20302E3020746F20302E35636D90
:100360000044697374616E63653A3A20302E35201B
:10037000746F20312E30636D0044697374616E6355
:10038000653A3A20312E3520746F20322E30636D5D
:100390000044697374616E63653A3A20322E3020EE
:1003A000746F20322E35636D0044697374616E631F
:1003B000653A3A20322E3520746F20332E30636D2B
:1003C0000044697374616E63653A3A20332E3020BD
:1003D000746F20332E35636D0044697374616E63EE
:1003E000653A3A20332E3520746F20342E30636DF9
:1003F0000044697374616E63653A3A20342E30208C
:10040000746F20342E35636D0044697374616E63BC
:10041000653A3A20342E3520746F20352E30636DC6
:100420000044697374616E63653A3A20352E30205A
:0A043000746F2061626F76650000B2
:00000001FF
