:100000000C942A000C9447000C9447000C94470071
:100010000C9447000C9447000C9447000C94470044
:100020000C9447000C9447000C9447000C94470034
:100030000C9447000C9447000C9447000C94470024
:100040000C9447000C9447000C9447000C94470014
:100050000C94470011241FBECFE5D4E0DEBFCDBF16
:1000600010E0A0E6B0E0E6EEF0E002C005900D92F0
:10007000A036B107D9F710E0A0E6B0E001C01D92AC
:10008000A036B107E1F70E9449000C9471000C946E
:1000900000008FEF87BB21E030E069E170E00AC02B
:1000A00028BB80E197E2FB013197F1F70197D9F77F
:1000B000220F331F213831059CF340E850E028E03F
:1000C00030E048BB80E197E2FB013197F1F70197FF
:1000D000D9F7559547952150304099F721E030E008
:0600E000E9CFF894FFCF08
:00000001FF
